{
  "_format": "hh-sol-artifact-1",
  "contractName": "MaticFaucet",
  "sourceName": "contracts/MaticFaucet.sol",
  "abi": [
    {
      "inputs": [],
      "stateMutability": "payable",
      "type": "constructor"
    },
    {
      "anonymous": false,
      "inputs": [
        {
          "indexed": true,
          "internalType": "address",
          "name": "from",
          "type": "address"
        },
        {
          "indexed": true,
          "internalType": "address",
          "name": "to",
          "type": "address"
        },
        {
          "indexed": false,
          "internalType": "uint256",
          "name": "value",
          "type": "uint256"
        }
      ],
      "name": "Transfer",
      "type": "event"
    },
    {
      "inputs": [],
      "name": "amountAllowed",
      "outputs": [
        {
          "internalType": "uint256",
          "name": "",
          "type": "uint256"
        }
      ],
      "stateMutability": "view",
      "type": "function"
    },
    {
      "inputs": [],
      "name": "donateToFaucet",
      "outputs": [],
      "stateMutability": "payable",
      "type": "function"
    },
    {
      "inputs": [
        {
          "internalType": "address",
          "name": "",
          "type": "address"
        }
      ],
      "name": "lockTime",
      "outputs": [
        {
          "internalType": "uint256",
          "name": "",
          "type": "uint256"
        }
      ],
      "stateMutability": "view",
      "type": "function"
    },
    {
      "inputs": [],
      "name": "maxAmount",
      "outputs": [
        {
          "internalType": "uint256",
          "name": "",
          "type": "uint256"
        }
      ],
      "stateMutability": "view",
      "type": "function"
    },
    {
      "inputs": [],
      "name": "owner",
      "outputs": [
        {
          "internalType": "address",
          "name": "",
          "type": "address"
        }
      ],
      "stateMutability": "view",
      "type": "function"
    },
    {
      "inputs": [],
      "name": "paused",
      "outputs": [
        {
          "internalType": "bool",
          "name": "",
          "type": "bool"
        }
      ],
      "stateMutability": "view",
      "type": "function"
    },
    {
      "inputs": [],
      "name": "requestTokens",
      "outputs": [],
      "stateMutability": "nonpayable",
      "type": "function"
    },
    {
      "inputs": [
        {
          "internalType": "uint256",
          "name": "newAmountAllowed",
          "type": "uint256"
        }
      ],
      "name": "setAmountallowed",
      "outputs": [],
      "stateMutability": "nonpayable",
      "type": "function"
    },
    {
      "inputs": [
        {
          "internalType": "uint256",
          "name": "newMaxAmount",
          "type": "uint256"
        }
      ],
      "name": "setMaxAmount",
      "outputs": [],
      "stateMutability": "nonpayable",
      "type": "function"
    },
    {
      "inputs": [
        {
          "internalType": "address",
          "name": "newOwner",
          "type": "address"
        }
      ],
      "name": "setOwner",
      "outputs": [],
      "stateMutability": "nonpayable",
      "type": "function"
    },
    {
      "inputs": [],
      "name": "setPaused",
      "outputs": [],
      "stateMutability": "nonpayable",
      "type": "function"
    },
    {
      "inputs": [
        {
          "internalType": "uint256",
          "name": "newStipend",
          "type": "uint256"
        }
      ],
      "name": "setStipend",
      "outputs": [],
      "stateMutability": "nonpayable",
      "type": "function"
    },
    {
      "inputs": [
        {
          "internalType": "uint256",
          "name": "newTimeOut",
          "type": "uint256"
        }
      ],
      "name": "setTimeOut",
      "outputs": [],
      "stateMutability": "nonpayable",
      "type": "function"
    },
    {
      "inputs": [
        {
          "internalType": "uint256",
          "name": "newTransferGas",
          "type": "uint256"
        }
      ],
      "name": "setTransferGas",
      "outputs": [],
      "stateMutability": "nonpayable",
      "type": "function"
    },
    {
      "inputs": [],
      "name": "timeOut",
      "outputs": [
        {
          "internalType": "uint256",
          "name": "",
          "type": "uint256"
        }
      ],
      "stateMutability": "view",
      "type": "function"
    },
    {
      "inputs": [],
      "name": "viewAmountallowed",
      "outputs": [
        {
          "internalType": "uint256",
          "name": "",
          "type": "uint256"
        }
      ],
      "stateMutability": "view",
      "type": "function"
    },
    {
      "inputs": [],
      "name": "viewMaxAmount",
      "outputs": [
        {
          "internalType": "uint256",
          "name": "",
          "type": "uint256"
        }
      ],
      "stateMutability": "view",
      "type": "function"
    },
    {
      "inputs": [],
      "name": "viewOwner",
      "outputs": [
        {
          "internalType": "address",
          "name": "",
          "type": "address"
        }
      ],
      "stateMutability": "view",
      "type": "function"
    },
    {
      "inputs": [],
      "name": "viewPaused",
      "outputs": [
        {
          "internalType": "bool",
          "name": "",
          "type": "bool"
        }
      ],
      "stateMutability": "view",
      "type": "function"
    },
    {
      "inputs": [],
      "name": "viewStipend",
      "outputs": [
        {
          "internalType": "uint256",
          "name": "",
          "type": "uint256"
        }
      ],
      "stateMutability": "view",
      "type": "function"
    },
    {
      "inputs": [],
      "name": "viewTimeOut",
      "outputs": [
        {
          "internalType": "uint256",
          "name": "",
          "type": "uint256"
        }
      ],
      "stateMutability": "view",
      "type": "function"
    },
    {
      "inputs": [],
      "name": "viewTransferGas",
      "outputs": [
        {
          "internalType": "uint256",
          "name": "",
          "type": "uint256"
        }
      ],
      "stateMutability": "view",
      "type": "function"
    }
  ],
  "bytecode": "0x6080604052662386f26fc1000060015566b1a2bc2ec500006002556003805460ff19169055601d6004556152086005556125e4600655600080546001600160a01b03191633179055610b7d806100566000396000f3fe6080604052600436106101755760003560e01c80637856f041116100cb578063bc677b461161007f578063e77a4f0311610059578063e77a4f0314610390578063f3aa52a1146103b0578063f6c2bec6146103d057600080fd5b8063bc677b4614610332578063bf5a0e5a14610350578063c7e066ba1461037057600080fd5b80639ad2cd14116100b05780639ad2cd14146102d7578063a4beda63146102ed578063b07c6d831461031a57600080fd5b80637856f0411461028a5780638da5cb5b1461029f57600080fd5b806346ac5e191161012d5780635f48f393116101075780635f48f3931461024957806360790a061461025f578063614d85e11461027457600080fd5b806346ac5e19146101be5780634fe47f70146101ff5780635c975abb1461021f57600080fd5b8063186e07ee1161015e578063186e07ee146101c0578063359cf2b7146101d557806337a66d85146101ea57600080fd5b8063016ddb0e1461017a57806313af40351461019e575b600080fd5b34801561018657600080fd5b506004545b6040519081526020015b60405180910390f35b3480156101aa57600080fd5b506101be6101b9366004610a81565b6103e5565b005b3480156101cc57600080fd5b5060025461018b565b3480156101e157600080fd5b506101be610505565b3480156101f657600080fd5b506101be6107f6565b34801561020b57600080fd5b506101be61021a366004610ab1565b61086f565b34801561022b57600080fd5b506003546102399060ff1681565b6040519015158152602001610195565b34801561025557600080fd5b5061018b60025481565b34801561026b57600080fd5b5060055461018b565b34801561028057600080fd5b5061018b60045481565b34801561029657600080fd5b5060015461018b565b3480156102ab57600080fd5b506000546102bf906001600160a01b031681565b6040516001600160a01b039091168152602001610195565b3480156102e357600080fd5b5061018b60015481565b3480156102f957600080fd5b5061018b610308366004610a81565b60086020526000908152604090205481565b34801561032657600080fd5b5060035460ff16610239565b34801561033e57600080fd5b506000546001600160a01b03166102bf565b34801561035c57600080fd5b506101be61036b366004610ab1565b6108d9565b34801561037c57600080fd5b506101be61038b366004610ab1565b610943565b34801561039c57600080fd5b506101be6103ab366004610ab1565b6109ad565b3480156103bc57600080fd5b506101be6103cb366004610ab1565b610a17565b3480156103dc57600080fd5b5060065461018b565b6000546001600160a01b0316331461044f5760405162461bcd60e51b815260206004820152602260248201527f4f6e6c79206f776e65722063616e2063616c6c20746869732066756e6374696f604482015261371760f11b60648201526084015b60405180910390fd5b6001600160a01b0381166104cb5760405162461bcd60e51b815260206004820152602560248201527f4e6577206f776e65722063616e6e6f7420626520746865206e756c6c2061646460448201527f726573732e0000000000000000000000000000000000000000000000000000006064820152608401610446565b600080547fffffffffffffffffffffffff0000000000000000000000000000000000000000166001600160a01b0392909216919091179055565b60035460ff16156105585760405162461bcd60e51b815260206004820152601160248201527f466175636574206973207061757365642e0000000000000000000000000000006044820152606401610446565b3233146105a75760405162461bcd60e51b815260206004820152601e60248201527f5468652063616c6c657220697320616e6f7468657220636f6e747261637400006044820152606401610446565b600260075414156105fa5760405162461bcd60e51b815260206004820152600e60248201527f7265656e7472616e742063616c6c0000000000000000000000000000000000006044820152606401610446565b600260075560005a3360009081526008602052604090205490915042118061062c57506000546001600160a01b031633145b6106785760405162461bcd60e51b815260206004820152601960248201527f6c6f636b2074696d6520686173206e6f742065787069726564000000000000006044820152606401610446565b60015447116106c95760405162461bcd60e51b815260206004820152601e60248201527f4e6f7420656e6f7567682066756e647320696e207468652066617563657400006044820152606401610446565b600254333110806106e457506000546001600160a01b031633145b6107305760405162461bcd60e51b815260206004820152601760248201527f596f75206861766520746f6f206d756368204d415449430000000000000000006044820152606401610446565b60045461073d9042610aca565b33600081815260086020526040808220939093556001549251919280156108fc02929091818181858888f1935050505015801561077e573d6000803e3d6000fd5b5060005a905060006107908284610b01565b90506006546005546107a29190610aca565b6107ac9082610aca565b905060006107ba3a83610ae2565b604051909150339082156108fc029083906000818181858888f193505050501580156107ea573d6000803e3d6000fd5b50506001600755505050565b6000546001600160a01b0316331461085b5760405162461bcd60e51b815260206004820152602260248201527f4f6e6c79206f776e65722063616e2063616c6c20746869732066756e6374696f604482015261371760f11b6064820152608401610446565b6003805460ff19811660ff90911615179055565b6000546001600160a01b031633146108d45760405162461bcd60e51b815260206004820152602260248201527f4f6e6c79206f776e65722063616e2063616c6c20746869732066756e6374696f604482015261371760f11b6064820152608401610446565b600255565b6000546001600160a01b0316331461093e5760405162461bcd60e51b815260206004820152602260248201527f4f6e6c79206f776e65722063616e2063616c6c20746869732066756e6374696f604482015261371760f11b6064820152608401610446565b600455565b6000546001600160a01b031633146109a85760405162461bcd60e51b815260206004820152602260248201527f4f6e6c79206f776e65722063616e2063616c6c20746869732066756e6374696f604482015261371760f11b6064820152608401610446565b600555565b6000546001600160a01b03163314610a125760405162461bcd60e51b815260206004820152602260248201527f4f6e6c79206f776e65722063616e2063616c6c20746869732066756e6374696f604482015261371760f11b6064820152608401610446565b600655565b6000546001600160a01b03163314610a7c5760405162461bcd60e51b815260206004820152602260248201527f4f6e6c79206f776e65722063616e2063616c6c20746869732066756e6374696f604482015261371760f11b6064820152608401610446565b600155565b600060208284031215610a9357600080fd5b81356001600160a01b0381168114610aaa57600080fd5b9392505050565b600060208284031215610ac357600080fd5b5035919050565b60008219821115610add57610add610b18565b500190565b6000816000190483118215151615610afc57610afc610b18565b500290565b600082821015610b1357610b13610b18565b500390565b7f4e487b7100000000000000000000000000000000000000000000000000000000600052601160045260246000fdfea26469706673582212203ad9a37bf1d307b44e832af977f06024097cc3287a3d94731fd795eec0bb6ea864736f6c63430008070033",
  "linkReferences": {},
  "deployedLinkReferences": {}
}