{
  "address": "0x681EC952A21757F1Db3c317E74621fA5456D0585",
  "abi": [
    {
      "inputs": [],
      "stateMutability": "payable",
      "type": "constructor"
    },
    {
      "inputs": [],
      "name": "amountAllowed",
      "outputs": [
        {
          "internalType": "uint256",
          "name": "",
          "type": "uint256"
        }
      ],
      "stateMutability": "view",
      "type": "function"
    },
    {
      "inputs": [],
      "name": "donateToFaucet",
      "outputs": [],
      "stateMutability": "payable",
      "type": "function"
    },
    {
      "inputs": [
        {
          "internalType": "address",
          "name": "",
          "type": "address"
        }
      ],
      "name": "lockTime",
      "outputs": [
        {
          "internalType": "uint256",
          "name": "",
          "type": "uint256"
        }
      ],
      "stateMutability": "view",
      "type": "function"
    },
    {
      "inputs": [],
      "name": "maxAmount",
      "outputs": [
        {
          "internalType": "uint256",
          "name": "",
          "type": "uint256"
        }
      ],
      "stateMutability": "view",
      "type": "function"
    },
    {
      "inputs": [],
      "name": "owner",
      "outputs": [
        {
          "internalType": "address",
          "name": "",
          "type": "address"
        }
      ],
      "stateMutability": "view",
      "type": "function"
    },
    {
      "inputs": [],
      "name": "paused",
      "outputs": [
        {
          "internalType": "bool",
          "name": "",
          "type": "bool"
        }
      ],
      "stateMutability": "view",
      "type": "function"
    },
    {
      "inputs": [],
      "name": "requestTokens",
      "outputs": [],
      "stateMutability": "nonpayable",
      "type": "function"
    },
    {
      "inputs": [
        {
          "internalType": "uint256",
          "name": "newAmountAllowed",
          "type": "uint256"
        }
      ],
      "name": "setAmountallowed",
      "outputs": [],
      "stateMutability": "nonpayable",
      "type": "function"
    },
    {
      "inputs": [
        {
          "internalType": "address",
          "name": "newOwner",
          "type": "address"
        }
      ],
      "name": "setOwner",
      "outputs": [],
      "stateMutability": "nonpayable",
      "type": "function"
    },
    {
      "inputs": [
        {
          "internalType": "uint256",
          "name": "newStipend",
          "type": "uint256"
        }
      ],
      "name": "setStipend",
      "outputs": [],
      "stateMutability": "nonpayable",
      "type": "function"
    },
    {
      "inputs": [
        {
          "internalType": "uint256",
          "name": "newTimeOut",
          "type": "uint256"
        }
      ],
      "name": "setTimeOut",
      "outputs": [],
      "stateMutability": "nonpayable",
      "type": "function"
    },
    {
      "inputs": [
        {
          "internalType": "uint256",
          "name": "newTransferGas",
          "type": "uint256"
        }
      ],
      "name": "setTransferGas",
      "outputs": [],
      "stateMutability": "nonpayable",
      "type": "function"
    },
    {
      "inputs": [],
      "name": "timeOut",
      "outputs": [
        {
          "internalType": "uint256",
          "name": "",
          "type": "uint256"
        }
      ],
      "stateMutability": "view",
      "type": "function"
    }
  ],
  "transactionHash": "0xd662c93c864334218322d6d239599692aeb36edd66f041ec0d7886d749562ae7",
  "args": [],
  "numDeployments": 5,
  "solcInputHash": "6fcf2a3c3bd80c01412c37c138dd57b2",
  "bytecode": "0x6080604052662386f26fc1000060015566b1a2bc2ec500006002556000600360006101000a81548160ff021916908315150217905550603c6004556152086005556125e4600655336000806101000a81548173ffffffffffffffffffffffffffffffffffffffff021916908373ffffffffffffffffffffffffffffffffffffffff160217905550610e99806100956000396000f3fe6080604052600436106100c25760003560e01c80638da5cb5b1161007f578063bf5a0e5a11610059578063bf5a0e5a14610225578063c7e066ba1461024e578063e77a4f0314610277578063f3aa52a1146102a0576100c2565b80638da5cb5b146101925780639ad2cd14146101bd578063a4beda63146101e8576100c2565b806313af4035146100c7578063359cf2b7146100f057806346ac5e19146101075780635c975abb146101115780635f48f3931461013c578063614d85e114610167575b600080fd5b3480156100d357600080fd5b506100ee60048036038101906100e99190610993565b6102c9565b005b3480156100fc57600080fd5b5061010561039a565b005b61010f6106a6565b005b34801561011d57600080fd5b506101266106a8565b6040516101339190610bd3565b60405180910390f35b34801561014857600080fd5b506101516106bb565b60405161015e9190610cae565b60405180910390f35b34801561017357600080fd5b5061017c6106c1565b6040516101899190610cae565b60405180910390f35b34801561019e57600080fd5b506101a76106c7565b6040516101b49190610bb8565b60405180910390f35b3480156101c957600080fd5b506101d26106eb565b6040516101df9190610cae565b60405180910390f35b3480156101f457600080fd5b5061020f600480360381019061020a9190610993565b6106f1565b60405161021c9190610cae565b60405180910390f35b34801561023157600080fd5b5061024c600480360381019061024791906109bc565b610709565b005b34801561025a57600080fd5b50610275600480360381019061027091906109bc565b6107a1565b005b34801561028357600080fd5b5061029e600480360381019061029991906109bc565b610839565b005b3480156102ac57600080fd5b506102c760048036038101906102c291906109bc565b6108d1565b005b60008054906101000a900473ffffffffffffffffffffffffffffffffffffffff1673ffffffffffffffffffffffffffffffffffffffff163373ffffffffffffffffffffffffffffffffffffffff1614610357576040517f08c379a000000000000000000000000000000000000000000000000000000000815260040161034e90610c0e565b60405180910390fd5b806000806101000a81548173ffffffffffffffffffffffffffffffffffffffff021916908373ffffffffffffffffffffffffffffffffffffffff16021790555050565b600360009054906101000a900460ff16156103ea576040517f08c379a00000000000000000000000000000000000000000000000000000000081526004016103e190610bee565b60405180910390fd5b3373ffffffffffffffffffffffffffffffffffffffff163273ffffffffffffffffffffffffffffffffffffffff1614610458576040517f08c379a000000000000000000000000000000000000000000000000000000000815260040161044f90610c2e565b60405180910390fd5b60005a9050600760003373ffffffffffffffffffffffffffffffffffffffff1673ffffffffffffffffffffffffffffffffffffffff1681526020019081526020016000205442116104de576040517f08c379a00000000000000000000000000000000000000000000000000000000081526004016104d590610c4e565b60405180910390fd5b6001544711610522576040517f08c379a000000000000000000000000000000000000000000000000000000000815260040161051990610c6e565b60405180910390fd5b6002543373ffffffffffffffffffffffffffffffffffffffff16311061057d576040517f08c379a000000000000000000000000000000000000000000000000000000000815260040161057490610c8e565b60405180910390fd5b3373ffffffffffffffffffffffffffffffffffffffff166108fc6001549081150290604051600060405180830381858888f193505050501580156105c5573d6000803e3d6000fd5b50600454426105d49190610cda565b600760003373ffffffffffffffffffffffffffffffffffffffff1673ffffffffffffffffffffffffffffffffffffffff1681526020019081526020016000208190555060005a90506000818361062a9190610d8a565b905060065460055461063c9190610cda565b816106479190610cda565b905060003a826106579190610d30565b90503373ffffffffffffffffffffffffffffffffffffffff166108fc829081150290604051600060405180830381858888f1935050505015801561069f573d6000803e3d6000fd5b5050505050565b565b600360009054906101000a900460ff1681565b60025481565b60045481565b60008054906101000a900473ffffffffffffffffffffffffffffffffffffffff1681565b60015481565b60076020528060005260406000206000915090505481565b60008054906101000a900473ffffffffffffffffffffffffffffffffffffffff1673ffffffffffffffffffffffffffffffffffffffff163373ffffffffffffffffffffffffffffffffffffffff1614610797576040517f08c379a000000000000000000000000000000000000000000000000000000000815260040161078e90610c0e565b60405180910390fd5b8060048190555050565b60008054906101000a900473ffffffffffffffffffffffffffffffffffffffff1673ffffffffffffffffffffffffffffffffffffffff163373ffffffffffffffffffffffffffffffffffffffff161461082f576040517f08c379a000000000000000000000000000000000000000000000000000000000815260040161082690610c0e565b60405180910390fd5b8060058190555050565b60008054906101000a900473ffffffffffffffffffffffffffffffffffffffff1673ffffffffffffffffffffffffffffffffffffffff163373ffffffffffffffffffffffffffffffffffffffff16146108c7576040517f08c379a00000000000000000000000000000000000000000000000000000000081526004016108be90610c0e565b60405180910390fd5b8060068190555050565b60008054906101000a900473ffffffffffffffffffffffffffffffffffffffff1673ffffffffffffffffffffffffffffffffffffffff163373ffffffffffffffffffffffffffffffffffffffff161461095f576040517f08c379a000000000000000000000000000000000000000000000000000000000815260040161095690610c0e565b60405180910390fd5b8060018190555050565b60008135905061097881610e35565b92915050565b60008135905061098d81610e4c565b92915050565b6000602082840312156109a557600080fd5b60006109b384828501610969565b91505092915050565b6000602082840312156109ce57600080fd5b60006109dc8482850161097e565b91505092915050565b6109ee81610dbe565b82525050565b6109fd81610dd0565b82525050565b6000610a10601183610cc9565b91507f466175636574206973207061757365642e0000000000000000000000000000006000830152602082019050919050565b6000610a50602283610cc9565b91507f4f6e6c79206f776e65722063616e2063616c6c20746869732066756e6374696f60008301527f6e2e0000000000000000000000000000000000000000000000000000000000006020830152604082019050919050565b6000610ab6601e83610cc9565b91507f5468652063616c6c657220697320616e6f7468657220636f6e747261637400006000830152602082019050919050565b6000610af6601983610cc9565b91507f6c6f636b2074696d6520686173206e6f742065787069726564000000000000006000830152602082019050919050565b6000610b36601e83610cc9565b91507f4e6f7420656e6f7567682066756e647320696e207468652066617563657400006000830152602082019050919050565b6000610b76601783610cc9565b91507f596f75206861766520746f6f206d756368204d415449430000000000000000006000830152602082019050919050565b610bb281610dfc565b82525050565b6000602082019050610bcd60008301846109e5565b92915050565b6000602082019050610be860008301846109f4565b92915050565b60006020820190508181036000830152610c0781610a03565b9050919050565b60006020820190508181036000830152610c2781610a43565b9050919050565b60006020820190508181036000830152610c4781610aa9565b9050919050565b60006020820190508181036000830152610c6781610ae9565b9050919050565b60006020820190508181036000830152610c8781610b29565b9050919050565b60006020820190508181036000830152610ca781610b69565b9050919050565b6000602082019050610cc36000830184610ba9565b92915050565b600082825260208201905092915050565b6000610ce582610dfc565b9150610cf083610dfc565b9250827fffffffffffffffffffffffffffffffffffffffffffffffffffffffffffffffff03821115610d2557610d24610e06565b5b828201905092915050565b6000610d3b82610dfc565b9150610d4683610dfc565b9250817fffffffffffffffffffffffffffffffffffffffffffffffffffffffffffffffff0483118215151615610d7f57610d7e610e06565b5b828202905092915050565b6000610d9582610dfc565b9150610da083610dfc565b925082821015610db357610db2610e06565b5b828203905092915050565b6000610dc982610ddc565b9050919050565b60008115159050919050565b600073ffffffffffffffffffffffffffffffffffffffff82169050919050565b6000819050919050565b7f4e487b7100000000000000000000000000000000000000000000000000000000600052601160045260246000fd5b610e3e81610dbe565b8114610e4957600080fd5b50565b610e5581610dfc565b8114610e6057600080fd5b5056fea26469706673582212203f1531127fb0e2ec490a5436819829eeeb0162fa9c85390ac2bb69b88377f12464736f6c63430008000033",
  "devdoc": {
    "kind": "dev",
    "methods": {},
    "version": 1
  },
  "userdoc": {
    "kind": "user",
    "methods": {},
    "version": 1
  },
  "storageLayout": {
    "storage": [
      {
        "astId": 3,
        "contract": "contracts/MaticFaucet.sol:MaticFaucet",
        "label": "owner",
        "offset": 0,
        "slot": "0",
        "type": "t_address"
      },
      {
        "astId": 6,
        "contract": "contracts/MaticFaucet.sol:MaticFaucet",
        "label": "amountAllowed",
        "offset": 0,
        "slot": "1",
        "type": "t_uint256"
      },
      {
        "astId": 9,
        "contract": "contracts/MaticFaucet.sol:MaticFaucet",
        "label": "maxAmount",
        "offset": 0,
        "slot": "2",
        "type": "t_uint256"
      },
      {
        "astId": 12,
        "contract": "contracts/MaticFaucet.sol:MaticFaucet",
        "label": "paused",
        "offset": 0,
        "slot": "3",
        "type": "t_bool"
      },
      {
        "astId": 15,
        "contract": "contracts/MaticFaucet.sol:MaticFaucet",
        "label": "timeOut",
        "offset": 0,
        "slot": "4",
        "type": "t_uint256"
      },
      {
        "astId": 18,
        "contract": "contracts/MaticFaucet.sol:MaticFaucet",
        "label": "transferGas",
        "offset": 0,
        "slot": "5",
        "type": "t_uint256"
      },
      {
        "astId": 21,
        "contract": "contracts/MaticFaucet.sol:MaticFaucet",
        "label": "stipend",
        "offset": 0,
        "slot": "6",
        "type": "t_uint256"
      },
      {
        "astId": 25,
        "contract": "contracts/MaticFaucet.sol:MaticFaucet",
        "label": "lockTime",
        "offset": 0,
        "slot": "7",
        "type": "t_mapping(t_address,t_uint256)"
      }
    ],
    "types": {
      "t_address": {
        "encoding": "inplace",
        "label": "address",
        "numberOfBytes": "20"
      },
      "t_bool": {
        "encoding": "inplace",
        "label": "bool",
        "numberOfBytes": "1"
      },
      "t_mapping(t_address,t_uint256)": {
        "encoding": "mapping",
        "key": "t_address",
        "label": "mapping(address => uint256)",
        "numberOfBytes": "32",
        "value": "t_uint256"
      },
      "t_uint256": {
        "encoding": "inplace",
        "label": "uint256",
        "numberOfBytes": "32"
      }
    }
  }
}